S01700004763634170706C69636174696F6E322E737265635A
S11300000C942A000C9447000C9447000C9447006D
S11300100C9447000C9447000C9447000C949501F1
S11300200C9447000C9447000C9447000C94470030
S11300300C9447000C9447000C9447000C94470020
S11300400C9447000C9447000C9447000C94470010
S11300500C94470011241FBECFE5D8E0DEBFCDBF0E
S113006010E0A0E6B0E0E4E2F8E002C005900D92F2
S1130070A83DB107D9F721E0A8EDB0E001C01D9279
S1130080A230B207E1F70E9416030C9410040C94FA
S11300900000880F991FFC01EE51FF4F81E090E0B2
S11300A002C0880F991F6A95E2F720813181822B63
S11300B0932B918380830895880F991FFC01EE513F
S11300C0FF4F21E030E002C0220F331F6A95E2F7B0
S11300D02095309580819181282339233183208391
S11300E00895E2EEF0E080E02FEF28BB918192BB0F
S11300F09081329695BB88BB8F5F8031B1F70895AC
S11301006250710921E030E002C0220F331F6A956A
S1130110E2F7FC01EE0FFF1FEE51FF4F40815181CA
S113012042235323452B81F4FC01EE0FFF1FEC51B6
S1130130FF4F4081518124233523232B39F421E0BF
S11301400D972CF420E003C021E001C021E0822FB0
S11301500895AF92BF92CF92DF92EF92FF920F93E6
S11301601F93CF93DF93EC018B010E9480008823BF
S113017021F081E0809369002FC0B801CE010E9474
S1130180490068018FEFC81AD80AB601CE010E944F
S113019049005E018FEFA81AB80AB80161507109CD
S11301A0C5010E944900B801C5010E9449007801B7
S11301B082E0E80EF11CB701C5010E9449002296B5
S11301C0B801CE010E944900B601CE010E94490047
S11301D0B701CE010E944900DF91CF911F910F9189
S11301E0FF90EF90DF90CF90BF90AF900895AF92C3
S11301F0BF92CF92DF92EF92FF920F931F93CF9310
S1130200DF938B012091E100222319F0EC01219668
S113021002C0EC012197B801CE010E945C00680184
S11302208FEFC81AD80AB601CE010E945C005E01A5
S11302308FEFA81AB80AB80161507109C5010E946C
S11302405C00B801C5010E945C00780182E0E80E00
S1130250F11CB701C5010E945C002296B801CE01D1
S11302600E945C00B601CE010E945C00B701CE0181
S11302700E945C00DF91CF911F910F91FF90EF904E
S1130280DF90CF90BF90AF9008956091650070911A
S1130290660080916700909168000E94F700E2EE8A
S11302A0F0E022E031E080819181880F991F8193F1
S11302B09193E217F307B9F76091650070916600B6
S11302C080916700909168000E94A9000895EF92C0
S11302D0FF920F931F93CF93DF938C017B01C0E0B8
S11302E0D0E00C171D071CF4CE15DF052CF060E0E0
S11302F070E0CE010E9449002196C031D10589F7F2
S1130300DF91CF911F910F91FF90EF9008958EB5DB
S11303108A608EBD1DBC1CBC80ED97E09BBD8ABD70
S113032089B7806189BF789408951F920F920FB6A0
S11303300F9211242F933F934F935F936F937F9367
S11303408F939F93AF93BF93CF93DF93EF93FF93D9
S11303508091E0008F5F8093E00090E02091640042
S113036064E170E0621B71090E942903892B51F535
S11303708091670090916800019690936800809343
S113038067000E9445018091DA009091DB0001979B
S11303900397A0F46091DC007091DD008091DE0091
S11303A09091DF000E9467018091DA009091DB0058
S11303B001969093DB008093DA0004C01092DB0076
S11303C01092DA008091E000863E08F457C00E9443
S11303D09D0387709078992324F40197886F9F6F09
S11303E001960296883091052CF49093DF00809357
S11303F0DE0006C081E090E09093DF008093DE0091
S11304008091DE009091DF00EC0126960E949D030E
S113041065E070E00E9429038C0F9D1F8F309105C9
S11304202CF49093DD008093DC0006C08EE090E015
S11304309093DD008093DC006091DC007091DD001E
S11304408091DE009091DF009B01281B390B263040
S1130450310534F0CB0105979093DF008093DE00E3
S11304608091DE009091DF000E9467011092E0000D
S113047081E090E09093DB008093DA0089B38823D5
S113048039F08091D8009091D900892B99F028C037
S11304908091D8009091D900009739F101969093FA
S11304A0D9008093D8000B9704F11092D9001092D0
S11304B0D8001BC081E08093E10080916700909197
S11304C06800019790936800809367008091D8003A
S11304D09091D90001969093D9008093D800D8CFF9
S11304E08091D8009091D900D9CFFF91EF91DF91FD
S11304F0CF91BF91AF919F918F917F916F915F91B8
S11305004F913F912F910F900FBE0F901F90189510
S1130510CF93DF93CDB7DEB7CE56D1090FB6F8949B
S1130520DEBF0FBECDBF8AE1EAE6F0E0DE01AB5AE2
S1130530BF4F01900D928A95E1F784E5E4E8F0E07D
S1130540DE01119601900D928A95E1F7CC24C394B3
S1130550D12C0F2EF0ED6F2EF02D0F2EF7E07F2E05
S1130560F02D65E570E06C0F7D1F6F5F7F4F9FEF8F
S1130570B62EA72E11E0892F0F2EF5E5EF2EF12CC4
S1130580F02DEC0EFD1E2FE0E20EF11C812C912CBF
S1130590262D372D12C015BA12BA88BBDF01119768
S11305A0AC91A2BBA081A5BB08BB0F5F32960E30F5
S11305B091F798BB2150310929F0AB01EB2DFA2DAD
S11305C0012FE9CFF601EE0FFF1F9F01220F331F0A
S11305D0220F331F220F331FD901AE1BBF0BFD01A6
S11305E0319621E030E02C0F3D1FE20FF31F2A016A
S11305F031E0431A51089F0121503109D9012C914E
S1130600D2012C932081DA012C9332964E5F5F4FF6
S11306104E155F0561F7BFEFCB1ADB0A26E0C21661
S1130620D1040CF4B5CFC82CD92CB2CF8FEF87BB33
S113063084BB81BB1ABA0E94870180916900811131
S113064006C00E947100809169008823D1F30E9442
S1130650880297FB072E16F4009407D077FD09D083
S11306600E943D0307FC05D03EF4909581959F4F71
S11306700895709561957F4F0895AA1BBB1B51E1A6
S113068007C0AA1FBB1FA617B70710F0A61BB70BFE
S1130690881F991F5A95A9F780959095BC01CD01A3
S11306A008958F929F92AF92BF92CF92DF92EF9272
S11306B0FF92CF93DF93EC01688179818A819B81DA
S11306C0611571058105910521F464E279ED8BE5ED
S11306D097E02DE133EF41E050E00E94AD03490182
S11306E05A019B01AC01A7EAB1E40E94CC036B015F
S11306F07C01ACEEB4EFA50194010E94DA03DC01A5
S1130700CB018C0D9D1DAE1DBF1DB7FF03C001970E
S1130710A109B04888839983AA83BB839F77DF911B
S1130720CF91FF90EF90DF90CF90BF90AF909F90CC
S11307308F9008950E945103089580E690E00E94EE
S113074051030895A0E0B0E08093600090936100AD
S1130750A0936200B09363000895052E97FB1EF4E6
S113076000940E94C40357FD07D00E94DF0307FCD6
S113077003D04EF40C94C4035095409530952195C4
S11307803F4F4F4F5F4F08959095809570956195B9
S11307907F4F8F4F9F4F08950E940104A59F900D96
S11307A0B49F900DA49F800D911D11240895B7FF4F
S11307B00C94CC030E94CC03821B930B0895A1E2FA
S11307C01A2EAA1BBB1BFD010DC0AA1FBB1FEE1FC7
S11307D0FF1FA217B307E407F50720F0A21BB30B12
S11307E0E40BF50B661F771F881F991F1A9469F78E
S11307F060957095809590959B01AC01BD01CF01EA
S11308000895A29FB001B39FC001A39F700D811DE5
S11308101124911DB29F700D811D1124911D089505
S1070820F894FFCF76
S113082401000000010C000300010780040004001F
S11308340700040004000400000044024002756E32
S1130844548A748E07800400040007000400040022
S113085404000600060006000600060007E007E0A0
S113086407C00440044007C004400440000007C01B
S11308740440044007C004000400040003E0022010
S1130884022003E002000200020008400840048041
S10B08940780030003000300C8
S9030000FC
